:020000040000FA
:1000000000100010010300000503000007030000BA
:10001000090300000B0300000D03000000000000B6
:100020000000000000000000000000000F030000BE
:1000300011030000000000001303000031820000E3
:10004000150300007943020051490200FB4F0200F2
:1000500047510200150300001503000015030000BE
:100060001503000015030000150300001503000030
:100070001503000015030000150300001503000020
:10008000150300001503000015030000553D010095
:10009000150300002DC0010015030000150300002A
:1000A00015030000D7190000150300001503000018
:1000B00015030000150300001503000015030000E0
:1000C00015030000000000000000000000F002F82E
:1000D00000F07CF80AA090E8000C82448344AAF166
:1000E0000107DA4501D100F071F8AFF2090EBAE864
:1000F0000F0013F0010F18BFFB1A43F0010318475C
:1001000010840300508403000A444FF0000C10F8E0
:10011000013B13F0070408BF10F8014B1D1108BF85
:1001200010F8015B641E05D010F8016B641E01F825
:10013000016BF9D113F0080F1EBF10F8014BAD1C75
:100140000C1B09D16D1E58BF01F801CBFAD505E093
:1001500014F8016B01F8016B6D1EF9D59142D6D3ED
:10016000704700000023002400250026103A28BF15
:1001700078C1FBD8520728BF30C148BF0B60704719
:10018000662927F0B285642925F05084752925F069
:100190004D84782925F08684632926F0908173297F
:1001A00026F09581002070471FB526F0D9F904008C
:1001B0000020002127F040F9401C60600020002151
:1001C00027F024F9E0601FBD10B510BD26F08EFCAD
:1001D0001146FFF7E9FF13F0FCF926F0B5FC03B474
:1001E000FFF7F2FF03BC26F0F9FC000072B64FF0F7
:1001F0000000704762B64FF00000704730BF4FF00C
:1002000000007047004700002DE9F05F2E482F4D99
:100210000024B0F8120F296800EB800001EB4007C2
:1002200002F0E1F800F0A0FA2949DFF8A8A00020C8
:1002300008709AF80000284E002804BF286814307F
:1002400002D007F0E4FD2868DFF890904FF0010835
:10025000DFF88CB0306006F0A7F91FF000F899F8CD
:10026000000013280BD01F480078002808BFBDE805
:10027000F09F07F0CCFD89F80080BDE8F09F306862
:10028000296888420DD29AF8000010B1164800780B
:1002900018B90021084602F0C6FE286800F59670DD
:1002A000306074B9286887420BD28BF80080FF2039
:1002B00000F073FA0D48012480F800800C4880F8A3
:1002C00000800EF07BF8C6E700F00720AC130010AA
:1002D000CE12001000C00720CC140010C014001073
:1002E000151300103D130010761300107B1300103F
:1002F0007C1300107047704770477047FFFFFFFF87
:1003000008480047FEE7FEE7FEE7FEE7FEE7FEE7F8
:10031000FEE7FEE7FEE7000003480449024A044BFB
:1003200070470000CD000000905A0010001000102F
:10033000000000102DE9F04FE64883B0002505705D
:10034000E548E749FF230570E448078828460DF192
:10035000080CF0220CF800200B54401CC0B20228FC
:10036000F5D302F040F8DF4EDF4AE04BB08A116867
:1003700000EB800001EB4000DFF874A31860DD485B
:100380008AF8005000240570DB48DC49A14600785B
:100390004FF0020C022804BF0120087003D004288B
:1003A00008BF81F800C0D64806F540580570D5480A
:1003B000057006F580451BF07CFE1BF0F6FE9AF8F2
:1003C00000000F2121EA0002CF48DFF828B3012303
:1003D00001789BF8000000F033FFCC480178CA4850
:1003E0000078814229D1CA490978052907D1C9492C
:1003F0000978884203D000218AF800100C46C64ACA
:10040000304400F540509AF80010127890F8870DAB
:10041000114308408AF800009BF8000068B9B6480C
:100420000078022804BF02208BF8000005D00428C1
:1004300018BF082801D18BF80000A848007810F0F8
:10044000010F24D0B9F1000F21D1B4494FF00109B7
:100450000868401C0860032819D3DFF8C4B2DBF831
:10046000001088420ED9AF49088810F4806F09D176
:1004700040F4806008800023642201214CF21000C7
:100480000AF05CFAA54900200860CBF800001EF0D5
:10049000E6FEA5480078042822D006287ED198F8E8
:1004A0000A0F00287AD08D48007810F0010F75D01F
:1004B0009E480078002871D09D48007800286DD1B2
:1004C0009C48017890480078814267D19A48B8F8F2
:1004D000081F0088884261D29848007864285DD25D
:1004E0009748007800281CBFB178002912D09148A5
:1004F000894A0078304400F5405090F8870D00EAB2
:10050000010111709AF8002042EA010100EA01009D
:100510008AF8000095F8710210F0200F08D09AF8C0
:10052000000003280CD08749002008708649087015
:100530009AF800C0A4457BD08448007860B175E08B
:1005400080490870B07A804900F003008AF8000002
:100550006A4800780870EBE77D48007800281CBFE7
:1005600095F8F401002861D17A4B4FF000000DF1AD
:10057000080E4FF0010B2CFA00F111F0010F04D01E
:1005800024FA00F111F0010F1ED04FF0F0010EF827
:10059000001000F10100C0B2022800E048E0EAD3F8
:1005A0009DF809109DF8080002F03DFDF07810F06C
:1005B000020F3BD05F490878321802F5405292F89A
:1005C000872D032A0DD031E030210EF800101A7863
:1005D0000BFA00F122EA010119705F4981F800B0BD
:1005E000D7E7584A1278032A20D00024CDE9004BDF
:1005F0008B46401CC1B29AF800302246052001F01B
:10060000A4FE3E480078012803D0022808BF02213A
:1006100000D001210220CDE900409BF800009AF8AB
:100620000030401CC2B2022001F08FFE9AF8004058
:1006300005F0BAFF1DF0E0FF3B480078062817D010
:1006400095F86802002804BF03B0BDE8F08F717907
:100650003848007881421FBF3179814203B0BDE83C
:10066000F08F4FF0010000F098F803B0BDE8F08F74
:1006700095F8D60202280FD118480088C107B1EBBF
:10068000C77F09D0B18A074601EB81021649096884
:1006900001EB420215490A601448016812480068DB
:1006A000814213D207F0B3FB1E4800236422018865
:1006B00041F00101018001214CF201000AF03EF9F4
:1006C00019490120087003B0BDE8F08F0DF076FEE7
:1006D00071E60000151300102A1300104A130010D1
:1006E0009812001000C00720AC130010CC140010AA
:1006F0005013001012130010081300100413001000
:100700007B1300107C13001041130010071300101E
:1007100017130010F812001009130010B410001085
:10072000B010001092120010C0140010FA13001044
:10073000511300103F130010B8110010771400106F
:10074000EC120010CE120010CF120010781300101F
:10075000F0120010CA1400104F13001088428CBF12
:10076000401A081AC0B27047FC490020FC4A0870C1
:10077000FF211170FB4A1070FB4A1070FB4A108079
:10078000FB4A1170FB490870FB490870FB4908706F
:10079000FB490870FB4908707047F0B5002583B02D
:1007A0000446FF2816D1ED48ED490570FF2008707A
:1007B000EC490D70EC490D70EC490D80EC49087066
:1007C000EC480570EC480570EC480570EC48057085
:1007D000EC480570EC4E14F0010F4FF00B0717D0EA
:1007E000CDE9005700231A46FF21052001F0ADFD99
:1007F000002116F8310020F0810006F8310006EBE8
:10080000C1004570481CC1B23729F2D3DF480570DA
:1008100014F00E0F17D0CDE900570023FF22194620
:10082000022001F092FD002116F8310020F00E00A8
:1008300006F8310006EBC1008570C5700571481CD3
:10084000C1B23729F0D314F0100F15D0CDE90057FD
:1008500000231A46FF218F2001F077FD002116F8B2
:10086000310020F0100006F8310006EBC1004571A0
:10087000481CC1B23729F2D314F0200F15D0CDE9AE
:10088000005700231A46FF21902001F05EFD002151
:1008900016F8310020F0200006F8310006EBC10008
:1008A0008571481CC1B23729F2D314F0400F04BF40
:1008B00003B0F0BD0023CDE900571A46FF21912077
:1008C00001F043FD002016F8301021F0400106F839
:1008D000301006EBC001401CC0B2CD713728F2D3F6
:1008E00003B0F0BD2DE9F04FA94EA74DA94A96F8E7
:1008F000008083B0127815F8381001EA0209A64981
:10090000097804291CBF03B0BDE8F08F9349A04BC0
:10091000DFF888C291F800A01B78A14AA1499C4445
:100920000CF5405492F800C00A78591CDFF858B210
:1009300000274FF00F0E0BEBC303BAF1010F30D0BD
:10094000BAF1020F1CBF03B0BDE8F08F40459CBF59
:1009500003B0BDE8F08F19F0020F04BF03B0BDE88B
:10096000F08F9B7894F8870D184010EA0C0F04D094
:10097000002A04BF03B0BDE8F08FCAB2CDE9007E03
:100980000121022001F0E1FC307815F8301021F04F
:10099000020105F8301005EBC000877003B0BDE818
:1009A000F08F404524BF03B0BDE8F08F19F0040F6D
:1009B00004BF03B0BDE8F08FDB7894F8870D1840D2
:1009C00010EA0C0F04D0002A04BF03B0BDE8F08F7A
:1009D000CAB2CDE9007E0221084601F0B6FC3078AB
:1009E00015F8301021F0040105F8301005EBC000B7
:1009F000C77003B0BDE8F08FDFF8A0C130B49CF839
:100A000004209CF805C00023944528BF5E4C09D300
:100A100014F832500D421CBF5B1CDBB2521CD2B228
:100A20009445F5D283422CBF0120002030BC704792
:100A30005D4B30B41C78564B0022114693F800C031
:100A40004C4B0A2C1B784CD2DFE804F03C05050522
:100A50002F2F4B2F2F2F5549097888428CBF421AD0
:100A60000A1AD2B2524C2478012C0AD0884217D8E4
:100A700050490978814213D813F0010F0AD001219F
:100A80002FE0884208D34B490978814204D313F000
:100A9000010FF4D1022124E013F0010F20D102E074
:100AA00013F0010F1CD109211BE0434A1278904238
:100AB0008CBF821A121A12F0FF0212D013F0010F2B
:100AC0000ED00BE060458CBFA0EB0C02ACEB00023B
:100AD00012F0FF0205D013F0010F01D0062100E053
:100AE00008212E4C6579654538BF0022DFF874C0B7
:100AF0009CF800C0634505D1194B1B78984208BF8C
:100B0000002000D00520114408442C49637B09785B
:100B100030BC084403EBC000704770B41449284A45
:100B200000200B78134991F800C013490D780F4944
:100B30000C8800EB400112F811609E4242D102EB9A
:100B400041014E78664504BF0E79AE423AD14988DC
:100B5000A14237D270BC002070470000041300107F
:100B600007130010081300100913001010130010D1
:100B70000D1300100E1300100F130010241300109B
:100B800025130010261300106815001029130010FB
:100B90003F13001014130010C014001000C00720F1
:100BA000CA140010781300103D130010C214001076
:100BB00042130010C3140010411300102A13001038
:100BC00020170010401CC0B20828B2D370BC01200E
:100BD00070472DE9F04F0646F848F94AFA4F10F8E9
:100BE00036001278DFF8E48300EA0205F548DFF802
:100BF000E0934FF0010A0670F0484FF0080B00EB4D
:100C0000C604012910D015F0040F33D00420387029
:100C1000E07888F800003046FFF70AFFA9F80000E6
:100C2000FFF77BFF30B335E015F0020F0CD0022048
:100C30003870A07888F800003046FFF7F9FEA9F870
:100C40000000FFF76AFF28BB15F0080F0CD087F8EB
:100C500000B0207988F800003046FFF7E9FEA9F8D7
:100C60000000FFF75AFFA8B915F0010008BFBDE862
:100C7000F08F17E015F0080F0FD087F800B020793B
:100C800088F800003046FFF7D3FEA9F80000FFF710
:100C900044FF10B10120BDE8F08F15F0010008BF3E
:100CA000BDE8F08F87F800A0607888F80000304633
:100CB000FFF7BEFEA9F800000120BDE8F08FBF4A93
:100CC000102902EBC00004BF40797047202904BFFF
:100CD00080797047402904BFC0797047802914BFCC
:100CE0000020407870472DE9F04F0D46B449164674
:100CF0000446097829423ED0B4423CD8DFF8C48289
:100D0000AE4FDFF8C892DFF8C0A2DFF8C4B217F820
:100D1000340028422BD088F80040102D23D0202DFD
:100D20001DD0402D17D0802D03BF204607EBC000FB
:100D30004078002089F800008AF800502046FFF72C
:100D400077FEABF80000802D02D0FFF7E6FE70B111
:100D50000120BDE8F08F07EBC400C079EAE707EB9C
:100D6000C4008079E6E707EBC4004079E2E7601C45
:100D7000C4B2B442CBD90020BDE8F08F2DE9F04FCA
:100D800006468F480D460078284008BFBDE8F08F22
:100D9000B24288BF32460024B71A3AD4DFF8249210
:100DA000DFF81882DFF824A2DFF81CB2311B18F834
:100DB0003100284229D089F80010C8B2102D04BF94
:100DC00008EBC000407911D0202D04BF08EBC00013
:100DD00080790BD0402D04BF08EBC000C07905D04E
:100DE000802D12BF002008EBC00040788AF8000078
:100DF0008BF80050C8B2FFF71BFE75490880FFF75B
:100E00008CFE10B10120BDE8F08F601CC4B2A74277
:100E1000CCDA0020BDE8F08F2DE9F34F0025DFF894
:100E20009CA1DFF8B0B189462F46002F08BF80256E
:100E30000AD0012F08BF402506D0022F08BF202569
:100E400002D0032F08BF1025B9F1020F07D09BF87D
:100E5000052029460098FFF746FF002848D1584949
:100E60009BF80400009E0978294237D0B04288BF21
:100E700030460024B6EB000830D4311B2A461AF85D
:100E80003100284226D04F48102A0170C8B204BF52
:100E90000AEBC000407911D0202A04BF0AEBC00041
:100EA00080790BD0402A04BF0AEBC000C07905D07E
:100EB000802D12BF00200AEBC0004078434A10701A
:100EC00041480570C8B2FFF7B3FD41490880FFF7FC
:100ED00024FE68B9601CC4B2A045CEDAB9F1020F95
:100EE0000AD19BF8052029460098FFF7FCFE18B1AF
:100EF00002B00120BDE8F08F781CC7B2042F94D354
:100F000002B00020BDE8F08FDFF8B4C000B52B4B75
:100F10009CF800C013F8303001EA0C010B4206D0F7
:100F20001146FFF756FE00281CBF012000BD00201F
:100F300000BD234B00B521491B7811F8302003F088
:100F400001031A4204BF002000BD1E4A01EBC0018C
:100F500010701E4A497811701B4A01211170FFF769
:100F600067FD1B490880012000BD2DE9F04385186D
:100F70000F46ECB2BC421DD8104EDFF84480DFF8BB
:100F8000589016F8340098F8001001F00B01084250
:100F90000CD099F8000008B1A54207D001212046E5
:100FA000FFF717FE10B10120BDE8F083601CC4B24A
:100FB000BC42E6D90020BDE8F083000068150010AF
:100FC000141300100D1300100E1300100F13001057
:100FD0001013001000C00720C81200102DE9F047C0
:100FE00005461646A94288BF014614466F1AA74215
:100FF0001FDBDFF84884DFF84894DFF848A42B1B98
:1010000099F8001018F8330001F00D0108420CD0D7
:101010009AF8000008B1B44207D0D8B20221FFF715
:10102000D8FD10B10120BDE8F087601CC4B2A74212
:10103000E5DA0020BDE8F0872DE9F0410C4685187F
:10104000A5421BD8FD4EFE4FDFF8F88316F834009A
:10105000397801F00D0108420CD098F8000008B171
:10106000A54207D002212046FFF7B3FD10B10120B1
:10107000BDE8F081601EC4B2A542E7D90020BDE8FA
:10108000F0812DE9F0431546064648190C46B0425A
:101090001FD8EA4FDFF8A883DFF8A89317F83400C9
:1010A00098F8001001F00B0108420DD099F80000EB
:1010B00010B16019B04207D001212046FFF789FD29
:1010C00010B10120BDE8F083601CC4B26019B042C9
:1010D000E4D90020BDE8F08330B50546D848007853
:1010E00010F00F0008BF30BDD74C79B101293CD0BA
:1010F00002291CBF002030BD002A4FD002220D2142
:101100002846FFF701FF00284CD059E072B10122B8
:101110000B212846FFF7F8FE002851D102220421B6
:101120002846FFF7F1FE00284AD104E02846FFF7E1
:1011300000FF002844D1617901222846FFF715FFFE
:1011400000283DD1217901222846FFF747FFB8BB8F
:10115000617901222846FFF76FFF88BB21790122C0
:101160002846FFF78EFF58BB30BD32B101220B215C
:101170002846FFF7C9FE20B122E02846FFF7D9FE36
:10118000F0B9617901222846FFF7EFFEC0B9617915
:1011900001222846FFF750FF90B930BD2846FFF7DF
:1011A000C8FE68B9217901222846FFF717FF38B930
:1011B000217901222846FFF764FF002808BF30BDCF
:1011C000012030BD2DE9F0430F468046014691468F
:1011D0003846FFF721FE9D4E9D4C9E4D60B94A4614
:1011E00041463846FFF778FF30B99B490020307000
:1011F0000880FF2121702870984A3078984B92F827
:1012000000C0984984450BD193F800C02678B445B6
:1012100006D191F800C02E78B44508BFBDE8F08330
:10122000DFF844C2914EDCF800C00CF1280CC6F87F
:1012300000C010702078187028780870BDE8F0831E
:101240002DE9FF4FDFF828920C4683B099F8000093
:1012500093464FF00008A04240F0B981854A1078CB
:10126000002800F0B481754911F83410014200F0F3
:10127000AE817549804B214401F5405102911B78A4
:1012800091F8871D0BEA0303194204D07B4B1B78AE
:10129000002B00F09C816C4BDFF8A0C1671CDA7852
:1012A00003F5405A0CEBC40603F5804510287DD0A9
:1012B0000FDC012814D0724BDFF8C8C102281B785C
:1012C00075D0042800F02B81082800F0658100F01B
:1012D00075B9202856D0402827D0802840F06E814C
:1012E00012F0020F01D0032908D00B20CDE90080B5
:1012F000F9B207230022052001F027F8624880F8A0
:1013000000804E4886F8018010F8341021F08101E9
:1013100000F834109AF8230F002800F04F815B4842
:101320000178491C017000F049B90F20CDE9008017
:10133000F9B207230022912001F007F8544886F8FB
:10134000078003210170B5F8E00100EB80015148EE
:10135000006800EB410250490A6095F8021201EB67
:10136000810100EB41014D48016095F8EA01002838
:101370001CBF8120FFF711FA95F8E401002800F066
:101380001D8159E00F20CDE90080F9B2072300222A
:10139000902000F0DAFF3E4986F8068002200870AF
:1013A000B5F8DE0100EB80013A4801E019E07AE08F
:1013B000006800EB410238490A6095F8011201EB20
:1013C000810100EB41013548016095F8E9010028F1
:1013D0001CBF8120FFF7E1F995F8E301002861D0F7
:1013E0002AE00F20CDE90080F9B2072300228F20E8
:1013F00000F0ABFF264986F8058001200870B5F89B
:10140000DC0100EB80012348006800EB4102224927
:101410000A6095F8001201EB810100EB41011F48C1
:10142000016095F8E80100281CBF8120FFF7B5F99D
:1014300095F8E201002835D00E2031E06815001043
:1014400014130010C812001000C007200E13001063
:101450000D1300100F1300101013001024130010B0
:101460002513001026130010BC13001020130010C9
:101470000713001008130010091300107813001050
:101480000A1400100B14001029130010161300107A
:1014900017130010AC130010181300101C130010C9
:1014A000FFF77BF98AE08CF8003012F0020F01D0D0
:1014B000032908D00F20CDE90080FAB207230121CB
:1014C000022000F042FF86F80280FD4D9AF8210FBD
:1014D00018B1FC480078002870D015F8340010F0DE
:1014E000040F6BD00298F17890F8870D084010EA4D
:1014F0000B0F02D0F4480078F0B30F20CDE9008044
:101500000221FAB20723084600F01FFF15F8340045
:1015100020F0040005F8340086F803804EE08CF8D3
:10152000003012F0020F01D0032908D00F20CDE9BE
:1015300000800221FAB20723084600F006FF86F871
:101540000380DF4D9AF8210F10B1DE48007898B182
:1015500015F8340010F0020F30D00298B17890F8EE
:10156000870D084010EA0B0F02D0D748007818B159
:101570000F20FAB2072300E020E0CDE9008001212E
:10158000022000F0E2FE15F8340020F0020005F819
:10159000340086F8028011E08CF8003012F0020F5F
:1015A00001D0032908D00F20CDE90080FAB207232B
:1015B0000321022000F0C9FE86F80480C048C34918
:1015C00010F83420097822EA010100F83410C04DE7
:1015D0002146069A2878FFF7F5FDBE480168BE4807
:1015E0000268BE48914201D9017869B1BC490A78C4
:1015F000B6490A70BB49097889F80010BA490A78D7
:10160000BA490A7080F80080B04A107848B1B849E9
:10161000B84B087099F800101970B449B64B0978A6
:101620001970297821B1012932D0022952D078E0ED
:1016300010F0F00F0FD099F80010A14207D1A04987
:1016400011F8341008405DD107B0BDE8F08F1DD906
:101650001AE028705BE0B0B399F80010A14212D1F3
:1016600010F0020F1CBF0121297010F0040F1CBFE5
:1016700002212970924911F83410084004BF07B0C4
:10168000BDE8F08F3EE001D90120E2E70220E0E76B
:1016900010F0F00F0AD099F80000A0429FBF85F823
:1016A0000080002007B0BDE8F08F30E068B199F805
:1016B0000010A14208D1824911F83410084021D10C
:1016C00007B0BDE8F08F2CE021D8039810F0020F8E
:1016D00027D124E010F0F00F07D099F800008442E1
:1016E00098BF85F8008023D911E0A0B199F80010C7
:1016F000A1420BD1724911F83410084004BF07B061
:10170000BDE8F08F022007B0BDE8F08F03D207B02C
:101710000120BDE8F08F039810F0040F01D185F887
:101720000080724889F8004082F8008080F80080CC
:1017300007B00020BDE8F08F2DE9F04FDFF8BCA125
:10174000044663489AF800106D4D0170DFF89881E7
:10175000DFF88CB1634E6B4F4FF000090129204632
:1017600003D0FFF759FB88B14BE0FFF755FB00288A
:1017700047D1002229782046FFF7F7FB002840D107
:10178000002229782046FFF757FC0AE0002229783A
:101790002046FFF723FC50BB002229782046FFF7A4
:1017A00070FC20BB58498BF80090A1F8009088F895
:1017B000009034709AF800205449012A0CD02A78FD
:1017C000A21A1ED4231A0B4403F5405393F8873D05
:1017D0009BB1211A397014E02A782046944210D81F
:1017E0000B1803F5405393F8873D0BB1387008E0B0
:1017F000401CC0B29042F3D903E0401CC0B2824208
:10180000E0DA4349344BDFF8CCC00A789BF800108B
:10181000DFF800B18A420BD19BF8002096F800E077
:10182000724505D13C4A98F800E0127872450ED016
:101830001A6802F12802CCF80020354A117032787B
:101840008BF80020344A98F800B082F800B0DFF836
:101850009CE0DFF878B011F0F00F1CBF9BF800207F
:10186000914265D02D4A102908BF92F8D8010BD0BB
:10187000202908BF92F8D90106D0402908BF92F864
:10188000DA0101D0802905D020B118682830CCF8C1
:1018900000004DE0DCF800001A68904248D89AF841
:1018A000000001283ED02A783078824298BFA042BA
:1018B0003ED98BF800903C708EF8009020462FE0C7
:1018C00068150010C51200107813001008130010DE
:1018D0000413001020130010BC130010C7120010D6
:1018E0000E1300100D1300100F1300100913001039
:1018F0000A1300100B1300100C13001042130010F9
:10190000C3140010071300101013001000C00720AC
:1019100024130010251300102613001000000820C7
:10192000BDE8F08F30782A78904298BF8442C0D8C2
:10193000DCF800001A68904207D88BF80010307865
:10194000387098F800008EF800003878BDE8F08F05
:10195000FA480D210160FA4941614FF0E0234FF050
:101960000072C3F88021016841F00101016000BFED
:1019700000BF8168C9B281600421416040F28F419B
:101980000161016821F00101016008214160C3F893
:1019900000214903016440F2017141640521816421
:1019A0007047E848016841F00D010160E649416176
:1019B0000421416040F28F410161016821F0010181
:1019C0000160082141604903016440F201714164F2
:1019D0000521816470472DE9F84FD84FFC68DFF886
:1019E0006CA3DFF86CB3DFF86C83DFF86C93DB4E2D
:1019F00014F0010F4FF0010563D0F86820F00100EA
:101A0000F860D74890F800E0BEF1320F2CD3786828
:101A100040F004007860306810F0040F51D1D149D3
:101A20000A68D14909688A424BD240F0040030600C
:101A3000CE48032300220168491D0160012148F2BC
:101A4000111008F07BFFCA489BF80010017098F84D
:101A5000000000F00F01C7480170C348006800F1A2
:101A60001E01C04801602CE0786AC0F30A01F02032
:101A700000EAD10CC04801F07F010278BF4802EBB8
:101A8000820300F813C000EB43004170BB6AC0F84A
:101A90000230FB6AC0F806307B6843F004037B60C9
:101AA000BCF1E00F7ED0B44BBCF1B00F00F022814E
:101AB000312A2CBF0020501C1870A9490EF10100DA
:101AC000087014F0020F39D0F86820F00200F860B6
:101AD000AB4800780090002804BFAA4805702DD0BC
:101AE000A948DFF8A8E24FF0020C007800EB800272
:101AF0001EF8121001F00F034CEA03433B630EEB98
:101B0000420201F0F001537843EAC1017963D2F84F
:101B10000210B963D2F80610F9634FF02101796021
:101B20009749009A6328A2F101020A7023BF00219D
:101B30009548017094493CBF401C087014F4806FB4
:101B400037D0F86820F48060F860914890F800E0A1
:101B5000BEF1000F04BF8F4805702AD08E488F4B0E
:101B6000017801EB810013F8102002F00F0C45EA18
:101B70000C4CC7F850C003EB400002F0F002437871
:101B800043EAC2027A65D0F80220BA65D0F80600AE
:101B9000F8654FF0810078607D4AAEF1010063295D
:101BA000107000E027E028BF00217B4838BF491CA7
:101BB000017014F0CC0F00F0A081B868010C7848D7
:101BC0000170B968090E4170F968C1F30441817070
:101BD000F968C1F38151C170B86810F0020F1CBFE1
:101BE000F86910F0020F00F03181306810F0080F32
:101BF00076D000F025B90C292AD0A1F11002032AD1
:101C000045D2684B05FA02F1DFF8A0C11A780A4301
:101C10001A70654A13788B431370654B90F802E095
:101C20009CF800201878BEF1050F28D0014204BFAF
:101C3000084318709BF8000001EA000040EA020027
:101C40008CF800005B48027841EA0201017038E735
:101C500059490A7842F001020A7058498278087896
:101C6000052A08D1564A127812F0010F18BF20F049
:101C700001007FF425AF40F00100087021E722EA5F
:101C800001028CF8002020EA0100187019E7A1F188
:101C900005010229BFF415AF4A4B05FA01F11A7884
:101CA0000A431A70484A13788B4313708378274885
:101CB000052B02782848007813D0014204BF08435E
:101CC00089F8000098F8000001EA000040EA0200EC
:101CD0008AF800003D48027841EA02010170F0E60E
:101CE0008AE022EA01028AF8002020EA010089F84D
:101CF0000000E6E6A1F11002032A0BD2344A11805B
:101D0000344A002143189B785354491C89B208294E
:101D1000F8D3D6E64A1F022A34BF2F4A2F4A118031
:101D2000002134BF2E4A2F4A5ED243189B78535469
:101D3000491C89B20829F8D3C3E6000000400440DA
:101D40000B80AB00008004401D80AB00B614001077
:101D5000AF140010B71400103213001060130010FD
:101D60004F1200105C120010AC1300102C14001065
:101D7000311300103413001051120010D441001020
:101D8000521200105512001053120010C8430010D8
:101D9000571200105A12001059120010B0470010CC
:101DA00000100010B2140010B0140010AE14001097
:101DB0002F13001030130010A4130010A5130010EF
:101DC000A7130010BA140010B81400103313001039
:101DD000B41400108C140010BC14001082140010F5
:101DE0009C1400108414001043189B785354491C11
:101DF00089B20829F8D364E6FD490A68FD490968F3
:101E00008A421DD240F008003060FB4803230022C4
:101E10000168491C0160012148F2101008F08EFD94
:101E2000F6489BF80010017098F8000000F00F01D0
:101E3000F3480170EF48006800F11E01EC480160B2
:101E400008207860EF480570EF480570B86810F01A
:101E5000800F1CBFF86910F0800F2BD0306810F095
:101E6000100F23D1E2490A68E24909688A421DD26B
:101E700040F010003060E048052300220168491D51
:101E80000160012148F2401008F058FDDB489BF842
:101E90000010017098F8000000F00F01D8480170A0
:101EA000D448006800F11E01D1480160D548057092
:101EB000D548057014F0040F1FD0D44890F80D0FCA
:101EC000D8B1D3480078C0B14FF0E0224FF0007194
:101ED000C2F88011386840F00100386002F5C07225
:101EE00000BF00BFB868C0B2B860386820F0010019
:101EF000386000BF00BF42F8801CDFF818C3DCF870
:101F00000C1011F0010F53D0DCF80C0020F0010090
:101F1000CCF80C00C0484FF0040B90F800E0BEF184
:101F2000320F18D3CCF804B0306810F4806F3FD172
:101F300040F480603060B948BA4B0268521D0260BC
:101F4000B74A002052F8204043F82040401C80B29D
:101F50000428F7D3C6E0DCF82400B44FC0F30A022B
:101F6000F02000EAD204B04802F07F02037803EBCD
:101F7000830007F8104007EB40004270DCF828703F
:101F8000C0F80270DCF82C70C0F80670DCF8207025
:101F9000CCF804B0E02C0CD0A34FB02C74D0312B73
:101FA0002CBF0020581C38709B4A0EF101001070A5
:101FB00098E0A2F110036E2B3ED29BB29C4F5A09BF
:101FC00003F01F0457F8228005FA04F348EA0308D7
:101FD00047F82280974F57F8228028EA030847F8ED
:101FE00022808078DFF85082944F052817D057F868
:101FF000220020FA04F414F0010F04BF184347F83C
:10200000220058F8220040EA030048F822008C48D9
:1020100050F8224044EA030340F8223062E058F8C6
:10202000220020EA030048F8220057F8220020EAA4
:10203000030047F8220055E0062A53D1814A13785D
:1020400043F002031370804A137823F002031370E5
:102050008078052819D099F8000010F0020F04BF0D
:1020600040F0020089F8000098F800009AF800207B
:1020700000F0020040EA02008AF80000734802788B
:1020800042F0020202702DE00CE09AF8000020F00D
:1020900002008AF8000099F8000020F0020089F898
:1020A00000001FE0A2F110036E2B0BD2684B1A80C8
:1020B000684B00228418A4789C54521C92B2082ABF
:1020C000F8D30FE0062A0DD1634B1A80634B4FF013
:1020D000000200EB0204A4789C5402F1010292B2C7
:1020E000082AF6D35E4C11F0020F3FD0DCF80C004A
:1020F00020F00200CCF80C00DFF868B19BF800700B
:10210000002F08BF257031D0DFF85CA1DFF85CE15B
:102110004FF002099AF8000000EB80031EF813202C
:1021200002F00F0849EA0848CCF830800EEB430370
:1021300002F0F00293F8018048EAC202CCF83420A1
:10214000D3F80220CCF83820D3F80620CCF83C2075
:102150004FF02102CCF80420A7F101028BF80020F7
:1021600031282CBF0020401C8AF8000011F4806F39
:102170003DD0DCF80C0020F48060CCF80C00DFF8D7
:10218000F0A09AF80070002F04BF3A48057079D08B
:10219000DFF8E490DFF8E4B099F8000000EB80038A
:1021A0001BF8132002F00F0845EA0848CCF85080CD
:1021B0000BEB430302F0F00293F8018048EAC202FD
:1021C000CCF85420D3F80220CCF85820D3F80620BD
:1021D000CCF85C204FF08102CCF80420A7F101027A
:1021E0008AF8002031282CBF0020401C48E049E03C
:1021F0005C120010AC1300102C14001031130010EE
:1022000034130010551200105A12001000F007206D
:102210003D130010008004406012001030140010C4
:10222000C05600109056001062120010984B00101B
:1022300004570010D0560010A0560010B0560010E1
:10224000F0560010BA140010B81400103313001028
:10225000BE14001094140010BC1400109C14001044
:102260006612001063120010641200108C4D0010F2
:10227000681200106B1200106A120010804F0010DC
:1022800089F8000011F0CC0F08BFBDE8F88FDCF82A
:102290000800F54B10F0020F1CBFDCF81C0010F01A
:1022A000020F20D0306810F4006F16D1EF4A196881
:1022B0001268914211D240F400603060EC48EE4A5E
:1022C0000168491C0160EB49002051F8207042F878
:1022D0002070401C80B20428F7D30820CCF80400FA
:1022E000E64825700570DCF8080010F0800F1ABF72
:1022F000DCF81C0010F0800FBDE8F88F306810F497
:10230000805F1DD1D94A19681268914218D240F4F1
:1023100080503060D648052300220168491D0160C5
:10232000012148F2411008F009FBD249D24A0020AD
:1023300051F8203042F82030401C80B20428F7D3F6
:10234000CE4825700570BDE8F88F2DE9F8431E468C
:10235000DDE9084517468846814615F0010F03D090
:102360004846009401F0A4F815F0020F06D0334659
:102370003A4641464846009401F0EAFB15F0040F46
:102380000AD0BF48007B012806D933463A46414669
:102390004846009401F0FDFE15F0080F08BFBDE8A7
:1023A000F88333463A4641464846009402F0DFFA45
:1023B000BDE8F88370B50C46B24905460A78002A94
:1023C0000CBF012200220A7014F0010F1CBF284626
:1023D00000F0EBFE14F0020F08BF70BD2846BDE808
:1023E000704001F06ABB10B500F01FFDBDE8104061
:1023F00001F020BC2DE9F05F4FF0010CDFF888E21E
:102400004CEA024441EAC00C40EA02050A9F002659
:10241000DEF800004FF0810B4FF000784FF0E0291C
:10242000002F56D0994F3F78002F08BFBDE8F09F8E
:10243000DFF85CA29AF80070322F0ED310F4804FB0
:1024400018BFBDE8F09F8A4940F480400A68521DD9
:102450000A60CEF80000BDE8F09FC9F88081DFF87F
:102460001CE29EF8000060B18A480465C0F854C0C0
:10247000196881655968C165C0F804B08EF80060BC
:1024800023E0854CDFF814B294F800C00CEB8C000C
:102490000BF810500BEB400500206970002A09D999
:1024A00005EB000B401C13F8011BC0B28BF80210A7
:1024B0008242F5D8BCF1310F01D3267002E00CF155
:1024C00001002070781C8AF80000C9F80081BDE87E
:1024D000F09F734F3F78002F08BFBDE8F09FDFF8F3
:1024E000C4A19AF80070642F20D310F0400F18BFD9
:1024F000BDE8F09F6C4D5D4C29682268914228BF71
:10250000BDE8F09F40F04000CEF80000674803238C
:1025100000220168491D0160012148F2651008F0A0
:102520000DFA20681E302860BDE8F09FC9F8808150
:10253000DFF87CE19EF8000060B15E480465C0F8F9
:1025400054C0196881655968C165C0F804B08EF837
:102550000060BAE7584CDFF864B194F800C00CEBA7
:102560008C000BF810500BEB400500206970002A1E
:1025700009D905EB000B401C13F8011BC0B28BF806
:1025800002108242F5D8BCF1630F98D395E770B57D
:1025900084B00546DDF820C001248DF80C508DF87C
:1025A000084026268DF80D108DF8096010268DF84C
:1025B0000E208DF80A6002268DF80F30A0208DF8CD
:1025C0000B6002AB08222146CDF800C0FFF712FFD6
:1025D00004B070BD00B585B00A4601218DF8081021
:1025E00026238DF8093010238DF80A3002238DF848
:1025F0000B301B234FF0A00C8DF80C300C280CBFB7
:10260000662365238DF80D308DF80E0000208DF8BF
:102610000F00009202AB08226046FFF7EBFE05B008
:1026200000BD10B584B00B4601218DF8081026249A
:102630008DF8094010248DF80A4002248DF80B40D3
:102640001B248DF80C40844659248DF80D408DF8DC
:102650000EC08DF80F300092A02002AB0822FFF7C9
:10266000C9FE04B010BD00006C120010AC130010C5
:1026700030140010C0560010905600106B1200105D
:1026800000C00720E913001060130010671200104B
:10269000681200100080044069120010804F001082
:1026A00056120010571200105C1200102C1400106B
:1026B0005A1200100040044058120010B047001099
:1026C0002DE9F0034FF0E0264FF00075C6F8805179
:1026D000FD490024087863282EBF0C70401C087048
:1026E000FA4F387860B3DFF8E8C3DFF8E8834FF0DB
:1026F00002099CF8000000EB800118F8112002F09C
:102700000F0349EA0349F44BC3F8309008EB410149
:1027100002F0F00291F8018048EAC2025A63D1F84F
:1027200002209A63D1F80610D963212159603C70C8
:1027300063282EBF8CF80040401C8CF8000003E09A
:10274000E6480178491C0170C6F80051BDE8F00365
:10275000704770B5E2480078642825D2E1480078D7
:10276000002808BF70BDDD48DF4A01781068642981
:102770001CD3DE4B196811F0010F15D1DC4DDD4C77
:10278000D5F800C02668B4450ED241F001011960A9
:10279000401D106003230022012148F2611008F05F
:1027A000CDF820681E302860002070BD00281CBFB6
:1027B000401E1060012070BD10B50446FFF7C9FF30
:1027C000002808BF10BDB822BF48C249007800EBFE
:1027D000800001F8102001EB400101224A708020A6
:1027E00088700020C870087148718C71200AC87107
:1027F000200C0872200E4872BDE8104060E72DE9F9
:10280000F041BD4FBD4982B038784FF0000600EB73
:10281000800001EB400C11F810009CF8015010F002
:102820000F0F7DD100110D287AD2DFE800F0F6BA43
:10283000ADF53DADADAD1907F4ADF300B0490020E5
:102840000CEB000292780A54401CC0B20728F7D360
:102850008879012864D10121084609F071FE93E0CE
:102860009CF8020000285BD085280DD00A229CF835
:102870000710CDE900129CF806309CF805209CF862
:102880000310FFF762FD7FE09CF807109CF806201C
:1028900000299C499CF8033001EB52010A7814BFCF
:1028A0001A439A430A70E1E7082D6DD2DFE805F07C
:1028B0006C0404046C575757934C2088F0B9934824
:1028C0000178D9B1924A4FF0FF314FF00108116001
:1028D0000670CDE900680723002204218520FFF758
:1028E00034FDCDE900680723002210214C20FFF7BA
:1028F0002CFD8048874900683230086038787F496D
:1029000000EB800001EB400004EB4501408821F81A
:10291000020C68B1691E01228A407F490B7800E0F1
:1029200032E023EA02020A70B0F5405F0CD02BE0DF
:10293000681E012181407848027811430170774870
:10294000284400F8016C1FE075483721284400F83E
:10295000016C74480670744823F0CDFA14E09CF8BA
:1029600002004FF0010110F0400FA5F1050001FA3F
:1029700000F16E48027814BF114322EA0101017090
:1029800018BF6B4800D00670387831282EBF3E70D3
:10299000401C387067480178491E017002B0BDE8DC
:1029A000F081BCF802404FF20121601A8C423FD006
:1029B00015DC4FF20111A4EB01008C4238D009DC88
:1029C000B4F5C24F5DD0A4F50140103818BF3028CF
:1029D00015D056E001283BD0052874D051E0B0F561
:1029E000807F25D004DC012832D005286BD048E058
:1029F000A0F5807001382BD0042864D041E0A5F107
:102A0000100003280AD2012181404B48027811436B
:102A1000017036E0FEE048E1EEE0A9E1681F02281F
:102A20002FD246484649007800F00F00087028E091
:102A30004449C4F30320401E91F85110C0B28842AB
:102A40001FD2364A115C64293CBF491C115418E05E
:102A50003C49C4F30320401E91F85110C0B2884293
:102A60000FD22F4B195C64290BD2DFF8DCC0374A38
:102A70001CF800801278904503D0491C19540CF8BA
:102A80000020002C80D0A4F5714006381EBFA4F5AC
:102A90007240B0F10600092D77D0A4F571400338DB
:102AA0001CBFA4F57240B0F1030076D0A4F501403C
:102AB00040381CBFA4F50040B0F5887066D0A4F57E
:102AC0000140113844E053E0541200105512001038
:102AD00053120010C843001000400440521200106E
:102AE00064130010561200102C1400106013001014
:102AF0005C120010AC13001050120010D4410010F2
:102B00007014001095130010C41400102815001044
:102B10003015001034150010CA1400109412001063
:102B2000961200109A120010825700104E130010D7
:102B3000161300104F12001031130010B7140010BC
:102B40003413001000C00720981200103F1300102B
:102B50001CBFA4F50140B0F1610017D0A4F50140FD
:102B600065381CBFA4F50040B0F5B0700ED014E07D
:102B7000FC4890F8CD020028FB48017814BF41F0D2
:102B8000040141F0020101707BE70CE0F74890F886
:102B90000D0F10B1F648007828B905230022294608
:102BA000204607F0CBFEA4F5014040381CBFA4F539
:102BB0000040B0F590701BD0A4F5014010381CBF48
:102BC000A4F50140B0F111000DD0A4F50140613829
:102BD0001FBFA4F50140B0F16500A4F50040B0F5B9
:102BE000B0707FF4D1AEE3480168491C0160CBE6C8
:102BF000E0480168891CF9E7082D7FF4C5AED94883
:102C000090F8900200287FF4BFAEDB499CF80200E8
:102C10000870B9E6012D7FF4B7AE9CF8020000F011
:102C2000E001402928D003DCF9B120290ED007E0CB
:102C3000602930D0802904BFD04806803FF4A4AE7C
:102C4000CE480680CE48FFF7B7FD9DE6CB4ABCF8DC
:102C500003409CF80510168002460CF1060320463E
:102C6000009604F009FC98B98EE60CF103010022ED
:102C700004F050FDA0B987E6C04ABCF803009CF8F8
:102C800005101680002204F08FFA00283FF47CAE75
:102C9000FFF792FD78E604F073FB00283FF474AE72
:102CA000FFF78AFDB54806806EE60A2D1DD0BCF8F8
:102CB00003109CF8050001F6DA71B1F500511DD042
:102CC000A1F57061E2397FF45FAE00283FF45CAE9D
:102CD000AC4991F851108142FFF456AEAA4A9CF8D3
:102CE0000610104400F8011C4EE6A8499CF80200AA
:102CF00008709CF80300A649087045E69CF802108D
:102D000001F07F01012908BF01287FF43DAEBCF826
:102D1000060002281FD19F499F4ADFF884C20E7027
:102D2000052111709D4A01211170002200210CEB38
:102D300002135E54491CC9B21029FAD3511CCAB2FD
:102D4000042AF3D3974AFF2111705170964A1170EB
:102D5000964A082111708F49097801297FF414AE31
:102D6000924A082111700BF07AFB914908800BE61A
:102D70000A2D7FF409AEBCF80300A0F52A415539AD
:102D800004BF01208B49B7D0A0F57F41FF3908BFB0
:102D900088483FF4F8ADF7E52DE9F041864CE0694D
:102DA000864E10F4006F4FF0410716D0844800782B
:102DB00080B14FF0E0204FF00071C0F880114A124E
:102DC000226440F2017262640522A264C0F800111C
:102DD000002030706760BDE8F0813078642816D339
:102DE000784D287810F0800F0AD1032300220121AA
:102DF00048F2601007F0A2FD287840F080002870AB
:102E00005C480168491D01603078642802D8C0B26E
:102E1000401C30706C49C82008706C491420087040
:102E20006B4908706760BDE8F08110B5FFF791FC51
:102E3000002808BF10BDA8216648674A007800EB4B
:102E4000800002F8101002EB4000012141708170F7
:102E50000021C17021220271604A41711278827191
:102E6000C17101724172BDE8104029E470B50C4691
:102E70000546FFF76EFC002808BF70BD02215548CB
:102E8000554B0278002002EB820203F8121003EB8C
:102E9000420250709570D470BDE8704010E42DE986
:102EA000F0411E4615460F468046069CFFF751FC32
:102EB000002808BFBDE8F081C8214648007800EB33
:102EC000800C454800F81C1000EB4C0C280A8CF8CC
:102ED00001808CF802708CF803508CF804008CF898
:102EE00005608CF80640200A8CF80700200C8CF84E
:102EF0000800200E8CF80900BDE8F041FFF7E0BBA8
:102F00002DE9F0411C4615460E460746FFF721FC09
:102F1000002808BFBDE8F081C8212E4802782E485D
:102F200002EB820200F8121000EB42020020577000
:102F30009670002C07D91318401C15F8011BC0B25D
:102F4000D9708442F7D8072C38BF002005D2111958
:102F5000C870611CCCB2072CF9D3BDE8F041FFF773
:102F6000AFBB0000000008207113001000F0072024
:102F70003D1300102C14001052130010A812001062
:102F80000100040500C007206A130010E0130010C0
:102F9000E1130010B9120010BC120010BB12001097
:102FA000A8550010AC140010A9140010BA1200109B
:102FB000B6120010101400100040044064130010FA
:102FC00056120010A61300105B12001067130010B9
:102FD0006813001054120010C8430010C0140010F1
:102FE00070B514460D460646FFF7B3FB002808BF30
:102FF00070BD9621FE480378FE4803EB830300F87A
:10300000131000EB4303012159709E70DD70002006
:10301000197158719871002C0CBFD871D971BDE825
:103020007040FFF74DBB70B50C46054601F0BAFE87
:1030300028B1002D08BF1025002C08BF1024FFF771
:1030400088FB002680B1EA48EA494422007800EB78
:10305000800001F8102001EB400046708670C570BA
:1030600006714471FFF72CFBE3480078002818BF75
:1030700070BDE2490878854209D14878844208BF8A
:1030800070BDDF4890F85100012898BF70BDDD4A3F
:10309000DD48002D18BF102D0CD0002C18BF102CAF
:1030A00012D0302D18BF402D16D0302C18BF402C18
:1030B00012D015E00378002C03F0030343F0010362
:1030C000037018BF102C05D1037803F0030343F0FD
:1030D00002030370167003E04FF0080303701670CC
:1030E0000D704C7070BD10B50446FFF732FB002820
:1030F00008BF10BD3122BE480178BE4801EB8101F6
:1031000000F8112000EB410108224A7003208C7066
:1031100000220A54401CC0B20928FAD9BDE8104068
:10312000FFF7CEBA10B50446FFF713FB002808BF1F
:1031300010BD1822AE480178AE4801EB810100F8BD
:10314000112000EB410101224A708C70200AC870E6
:103150000020087148718871C87108724872BDE812
:103160001040FFF7ADBA70B50D460446FFF7F1FA0F
:10317000002808BF70BD36229D489E490C23007868
:1031800000EB800001F8102001EB4002200A537090
:103190009470D070200C1071200E50719571280A17
:1031A000D071BDE87040FFF78BBA10B50446FFF749
:1031B000D0FA002808BF10BD86228D488D490078BE
:1031C00000EB800001F8102001EB400100224020BC
:1031D0004A708870FF2C06D0601CC8708B4800783D
:1031E000042804D00EE0CA708A71CA7121E08848B0
:1031F000884B00781B78184304D0532088715420E2
:10320000C87116E08448854B00781B78184306D0B7
:103210008348007818B14A208871582008E078481F
:1032200000EB440000F54050B0F8BE0D030A8B716E
:10323000C871012008714A71BDE81040FFF740BA1B
:1032400010B5FFF786FA002808BF10BDA82268480D
:103250006849DFF8D0C10078002300EB800001F856
:10326000102001EB40010B224A706F4A8B70BCF8B2
:1032700000001278000B12F0010F18BF40F0800020
:1032800012F0020F14BF40F0400020F0400012EA9C
:10329000121F14BF40F0200020F02000634A127873
:1032A000FF2A73D0531CCB70554B03EB420202F53F
:1032B0004052B2F8BE2D130A0B714A718871BCF8E6
:1032C00002005B4A000AC87112780020002A18BF69
:1032D0008020584A1278002A18BF40F04000564A11
:1032E0001278002A18BF40F02000544A1278002AB1
:1032F00018BF40F01000524A1278002A18BF40F060
:103300000800504A1278002A18BF40F004004E4BC3
:103310001B78002B18BF40F002004C4B1B78002B91
:1033200018BF40F001000872494B00201B78002BA9
:1033300018BF4020474B1B78002B18BF40F02000DF
:10334000454B1B78002B18BF40F01000434B1B78F7
:10335000002B18BF40F08000002A18BF40F0080082
:103360002A4A1278092A08BF40F0040003D00A2A2A
:1033700008BF40F002003A4A1278002A18BF40F015
:1033800001004872BDE81040FFF79AB9CB700B718D
:103390004B7193E72DE9F0411C4616460D46074652
:1033A000FFF7D7F9002808BFBDE8F081B821104821
:1033B0000378104803EB830300EB430C00F8131071
:1033C00001218CF801108CF802708CF80350280A47
:1033D0008CF804008CF805608CF80640200A8CF804
:1033E0000700200C8CF80800200E8CF8090039E04A
:1033F00054120010C8430010F01200100410001006
:1034000000C007200D1400100C140010C014001090
:103410009D13001098130010441300104613001061
:10342000E9130010C41400107F1300103F130010A4
:10343000C5120010F71200101713001053130010DC
:103440007C130010D21200107B13001058130010D0
:10345000EF120010F9120010D612001054130010D1
:103460008C130010BDE8F041FFF72AB970B50C4687
:103470000546FFF76EF9002808BF70BDB822444822
:103480000178444801EB810100F81120012200EB92
:10349000410100204A708D700B18401C14F8012B5C
:1034A000C0B2DA700728F7D3BDE87040FFF708B95B
:1034B0002DE9F0411D4616460F468046069CFFF753
:1034C00048F9002808BFBDE8F0818621304800781F
:1034D00000EB800C2F4800F81C10002100EB4C0C76
:1034E00001208CF801108CF802808CF803708CF8A5
:1034F00004008CF805608CF806508CF80740BDE895
:10350000F041FFF7DDB810B5FFF723F9002808BF39
:1035100010BDD6221E481F49007800EB800001F83C
:10352000102001EB40001C490B2242700A78827087
:103530004A78C2708A780271CA7842710B794A79E6
:1035400063F3DF0282718979C171BDE81040FFF732
:10355000B7B810B5FFF7FDF8002808BF10BD54221A
:103560000B480C49007800EB800001F8102001EBBB
:1035700040000A490A224270096881700A0AC27032
:103580000A0C0271090E4171BDE81040FFF798B8AE
:1035900054120010C8430010161500100414001037
:1035A0002DE9F0034FF0E0264FF00075C6F880518A
:1035B000FE490024087831282EBF0C70401C08708A
:1035C000FB4F387860B3DFF8ECC3DFF8EC834FF0E3
:1035D00002099CF8000000EB800118F8112002F0AD
:1035E0000F0349EA0349F54BC3F8309008EB41015A
:1035F00002F0F00291F8018048EAC2025A63D1F861
:1036000002209A63D1F80610D963212159603C70D9
:1036100031282EBF8CF80040401C8CF8000003E0DD
:10362000E7480178491C0170C6F80051BDE8F00375
:103630007047E4480078002808BF7047E2480078E7
:1036400064280FD2DE48E14A0178106832290BD392
:10365000DF4B196811F4807F04D141F48071401D63
:10366000196010600020704700281CBF401E1060C9
:103670000120704710B50446FFF7DBFF002808BFA4
:1036800010BDB822C948CC49007800EB800001F891
:10369000102001EB400101224A7080208870002038
:1036A000C870087148718C71200AC871200C0872AA
:1036B000200E4872BDE8104072E72DE9F843C54D71
:1036C000C54A0024287800EB800002EB400312F882
:1036D00010005978A02862D008DC102831D090283A
:1036E00004BF0020BD4E0CD000F0DCB8C0287DD057
:1036F000F02802BF64299878112800F0D08000F0EB
:10370000D1B803EB00018978315400F10100C0B257
:103710000728F6D3B079012803D10121084608F023
:103720000FFF3078022818BF8F2803D0902818BFC9
:10373000912874D1AA48007B012888BF00F056FD6B
:10374000B0E0187910F0100F69D0B3F802C0ACF5F2
:103750000140123818BF012803D00F2810D02F289D
:103760005DD1A1F110006E280AD29E4B9E4A002026
:1037700053F8206042F82060401CC0B20428F7D300
:1037800092480268521C0260ACF50140413846D1B3
:10379000052300226046803107F0D0F882E0B3F8BC
:1037A0000300597900F6DA70B0F5005F7AD19878A5
:1037B00000F07F00012808BF012973D1D888DFF805
:1037C0002CC28B4F4FF0080602281FD1894A8CF873
:1037D000004005211170884A0221DFF82082117013
:1037E0000022002108EB02135C5400E018E0491CA1
:1037F000C9B21029F8D3511CCAB2042AF1D38049A6
:10380000FF220A704A707F490A703E709CF80010CF
:10381000022947D13E700AF022FE7B49088041E030
:1038200001293FD19878794E00F0E001402927D056
:1038300003DCE1B120290BD005E060292AD08029E2
:1038400008BF34802ED034807148FFF713FF29E081
:10385000B3F803C0597934800122009202466046D1
:103860009B1D03F009FEE8B1FFF704FF1AE0D91C25
:10387000012203F04FFFA8B1FFF7FCFE348011E0F6
:10388000B3F8030059793480012203F08DFC00283D
:10389000EAD107E003F074FD0028EDD102E05D49B4
:1038A000D8780870287831282EBF2C70401C2870DA
:1038B00059480178491E0170BDE8F8832DE9F041AF
:1038C0001F46154688460646069CFFF7B2FE0028AE
:1038D00008BFBDE8F081C82234480178364801EBC2
:1038E000810C00F81C2000EB4C0C280A8CF80160BD
:1038F0008CF802808CF803508CF804008CF805706A
:103900008CF80640200A8CF80700200C8CF8080080
:10391000200E8CF80900BDE8F04141E6F0B51C46E8
:1039200015460F460646FFF784FE002808BFF0BD87
:10393000C8211E480278204802EB820200F81210CB
:1039400000EB4202002056709770002C07D9131824
:10395000401C15F8011BC0B2D9708442F7D8072C5F
:1039600038BF002005D21119C870611CCCB2072CD9
:10397000F9D3BDE8F04013E6F0B51C4616460D46F7
:103980000746FFF756FE002808BFF0BDB8210748DC
:103990000378094803EB830300EB430C00F8131092
:1039A00001218CF801108CF8027037E065120010CC
:1039B00066120010641200108C4D0010008004404C
:1039C000631200106712001065130010301400100D
:1039D0006013001061120010984B0010701400105A
:1039E00000C00720C056001090560010B9120010F9
:1039F000BA120010BC120010BB120010A855001023
:103A0000AC140010A9140010B6120010A812001077
:103A10000100040580140010601200108CF803509F
:103A2000280A8CF804008CF805608CF80640200AFF
:103A30008CF80700200C8CF80800200E8CF8090088
:103A4000BDE8F040ACE530B50C460546FFF7F1FDAA
:103A5000002808BF30BDB822EE480178EE4801EBDF
:103A6000810100F81120012200EB410100204A7081
:103A70008D700B18401C14F8012BC0B2DA700728A7
:103A8000F7D3BDE830408BE530B50C460546FFF76F
:103A9000D0FD002808BF30BD0321DE48DE4B027890
:103AA000002002EB820203F8121003EB4202507076
:103AB0009570D470BDE8304072E510B50446FFF74C
:103AC000B8FD002808BF10BD8622D248D249007830
:103AD00000EB800001F8102001EB400100224020A3
:103AE0004A708870FF2C06D0601CC870CB480078E4
:103AF000042804D00EE0CA708A71CA7121E0C84857
:103B0000C84A00781278104304D05320887154209A
:103B1000C87116E0C448C54A00781278104306D030
:103B2000C348007818B14A208871582008E0C1487D
:103B300000EB440000F54050B0F8BE0D020A8A7157
:103B4000C87101200871FF204871BDE8104027E5C9
:103B50002DE9F0411D4616460F468046069CFFF7AC
:103B600068FD002808BFBDE8F0818621A9480078DB
:103B700000EB800CA84800F81C10002100EB4C0C56
:103B800001208CF801108CF802808CF803708CF8FE
:103B900004008CF805608CF806508CF80740BDE8EE
:103BA000F041FDE4DFF890C230B4DCF81C00A34C17
:103BB00010F4006F4FF0410517D04FF0E0204FF0A8
:103BC0000071C0F880114A12CCF8402040F2017216
:103BD000CCF844200522CCF84820CCF80450C0F89A
:103BE00000110020207030BC70470021944A084624
:103BF00052F82030002B18BF0121401CC0B204280D
:103C0000F6D38E48007851B164280AD38D490A68EA
:103C100042F400520A608C490A68521D0A60642806
:103C200001D8401C2070894914200870CCF8045039
:103C300030BC704700B5FFF7FCFC002808BF00BD92
:103C4000A8217448744A007800EB800002F8101034
:103C500002EB40000121417081700021C1702122DE
:103C600002716E4A417112788271C17101724172A2
:103C70005DF804EB94E400B5FFF7DBFC002808BF17
:103C800000BDD62263486449007800EB800001F84B
:103C9000102001EB40006E490B2242700A788270BE
:103CA0004A78C2708A780271CA7842710B794A796F
:103CB00063F3DF0282718979C1715DF804EB6FE40F
:103CC00010B5FFF7B6FC002808BF10BDA822514868
:103CD0005149DFF880C10078002300EB800001F833
:103CE000102001EB40010B224A705B4A8B70BCF83C
:103CF00000001278000B12F0010F18BF40F0800096
:103D000012F0020F14BF40F0400020F0400012EA11
:103D1000121F14BF40F0200020F020004F4A1278FC
:103D2000FF2A73D0531CCB70424B03EB420202F5C7
:103D30004052B2F8BE2D130A0B714A718871BCF85B
:103D40000200474A000AC87112780020002A18BFF2
:103D50008020444A1278002A18BF40F04000424AAE
:103D60001278002A18BF40F02000404A1278002A3A
:103D700018BF40F010003E4A1278002A18BF40F0E9
:103D800008003C4A1278002A18BF40F004003A4B61
:103D90001B78002B18BF40F00200384B1B78002B1B
:103DA00018BF40F001000872354B00201B78002B33
:103DB00018BF4020334B1B78002B18BF40F0200069
:103DC000314B1B78002B18BF40F010002F4B1B7895
:103DD000002B18BF40F08000002A18BF40F00800F8
:103DE0000E4A1278092A08BF40F0040003D00A2ABC
:103DF00008BF40F00200264A1278002A18BF40F09F
:103E000001004872BDE81040FFF7CABBCB700B71D0
:103E10004B7193E7651200108C4D0010C014001018
:103E20009D13001098130010441300104613001047
:103E3000E913001000C00720008004406513001043
:103E4000C0560010601300103014001066130010EC
:103E500016150010C41400107F1300103F1300103B
:103E6000C5120010F71200101713001053130010A2
:103E70007C130010D21200107B1300105813001096
:103E8000EF120010F9120010D61200105413001097
:103E90008C1300100FF0E3BEF0B5FF4CFF49002576
:103EA000207883B000EB800011F8102001EB400176
:103EB000802A05D0902A04BF0020F94A70D0A5E0DE
:103EC000C87900286DD18878F64E022805D08F2851
:103ED0001CBF9028912844D081E04A79002A18BF5D
:103EE000FF2A7CD091F803C0A2F101028B79D2B2F3
:103EF000BCF1010F06D0BCF1020F12D0BCF1030FD0
:103F00001ED06CE006EBC20C9CF8027037EA03038B
:103F10008CF8023004BF16F8323023F002035ED171
:103F20001CE006EBC20C9CF8037037EA03038CF824
:103F3000033004BF16F8323023F004034FD10DE0F4
:103F400006EBC20C9CF8047037EA03038CF80430CB
:103F500004BF16F8323023F0080340D106F832309F
:103F60003DE0CA78002A18BFFF2A38D0A2F101022A
:103F70008B79D2B28F2804D0902813D0912820D0EA
:103F80002DE006EBC20C9CF8057037EA03038CF8B1
:103F9000053004BF16F8323023F010031FD1DDE7DF
:103FA00026E033E006EBC20C9CF8067037EA030308
:103FB0008CF8063004BF16F8323023F020030ED1FF
:103FC000CCE706EBC20C9CF8077037EA03038CF8C9
:103FD000073004BF16F8323023F04003BED00B2266
:103FE000CDE900528B794A79C978FEF7AEF90DE038
:103FF0000B189B781354401CC0B20728F8D3907953
:10400000012803D10121084608F09AFA20783128C6
:104010002EBF2570401C2070A3480178491E0170F6
:1040200003B0F0BDA14810B50078002808BF10BD4E
:104030009F48007832283CBF012010BD9D49086888
:1040400010F4803F0DD140F4803008609A4803237B
:1040500000220168491D0160012148F2691006F043
:104060006DFC002010BD2DE9F0439449002583B07C
:10407000087831282EBF0D70401C0870904E3078A3
:10408000002841D04FF0E0284FF40027C8F8807195
:104090008C4C8D4B207800EB800213F8120003EB60
:1040A000420210F00F0100F0F00C50784CEAD003FF
:1040B0008DF800304FEA40108DF801004FF00000FD
:1040C00018BF6B460BD002EB000C03EB0009401C41
:1040D0009CF802C0C0B289F802C08142F3D86A4697
:1040E00031200FF084FD0822114630200FF01DFD15
:1040F0003570207831282EBF2570401C2070C8F8FC
:10410000007103B0BDE8F08369490878401C08706D
:1041100003B0BDE8F08330B583B0FFF783FF00281C
:1041200004BF03B030BD6948E0224FF0E024407B7B
:104130004FF40025411C42EAD10140018DF80010E6
:1041400020308DF8010062480521007841EA0060C6
:10415000CDF802005F48604900880978000440EA11
:1041600001205E490978491C0843CDF80600C4F8CF
:1041700080516A460821412004F5C0740FF037FDD4
:104180008822114640200FF0D0FC44F8805C03B038
:1041900030BD2DE9F0471E46174688468146089DEA
:1041A000FFF740FF002808BFBDE8F087862243489C
:1041B0004549007800EB800001EB400C01F810202D
:1041C000424A537B012202FA03F48CF801408CF836
:1041D00002908CF803808CF804408CF805708CF801
:1041E00006608CF80750BDE8F0473CE710B5FFF7D4
:1041F00019FF002808BF10BD97223048324901231B
:10420000007800EB800001F81020304A01EB4001FB
:104210000020527B03FA02F24A70214A01EB000CA3
:10422000135C401CC0B28CF802300728F6D3BDE8FE
:10423000104018E70021DFF864C00A4601EB810353
:1042400000200CEB43031A54401CC0B20A28FAD3D6
:10425000481CC1B23229F1D3134802700E480270D3
:104260001F48027070470021DFF85CC00A4601EB6E
:10427000810300200CEB43031A54401CC0B20A28EF
:10428000FAD3481CC1B23229F1D3094802700D4853
:1042900002700A48027025E071120010745100107B
:1042A00070140010681500107012001077120010C2
:1042B00073120010601300103414001075120010F7
:1042C00076120010741200106853001000C007200E
:1042D0000E130010101300100F1300100D13001018
:1042E0007212001046490120087046490870704754
:1042F0002DE9F047444C454E454D2178DFF80481C7
:10430000336828684FF00A0C4FF001090022B9B158
:10431000DFF800A10A2922D00B291CBF2270BDE8BA
:10432000F0876168814228BFBDE8F0879AF80010E5
:1043300000295DD084F800C00A306060BDE8F087D5
:1043400013F47F0F04BF88F80090BDE8F08784F86D
:1043500000C01430606088F80020BDE8F087616814
:10436000814228BFBDE8F087DFF8ACC02B4E2C4F50
:104370008CF8002032703A708AF80020DFF8A4A090
:10438000002101EB810300200AEB43031A54401C77
:10439000C0B20A28FAD3481CC1B23229F1D322484C
:1043A000002102702148027021480270144880F8F0
:1043B000009088F80090DFF87C8001EB81030020FA
:1043C00008EB43031A54401CC0B20A28FAD3481C15
:1043D000C1B23229F1D38CF8002032703A700FF05C
:1043E0003EFC2868323060600B202070BDE8F0870A
:1043F00023F47F00306088F800902270BDE8F087D9
:1044000076120010771200100810001060130010D0
:10441000AC1300107812001070120010711200100E
:104420007212001068530010731200107412001002
:1044300075120010745100100021DFF808C30A46FD
:1044400001EB810300200CEB43031A54401CC0B263
:104450000A28FAD3481CC1B23229F1D3BA480270F3
:10446000BA480270BA48027070470021DFF8E4C20F
:104470000A4601EB810300200CEB43031A54401C55
:10448000C0B20A28FAD3481CC1B26429F1D3B24899
:104490000270B2480270B2480270704710B4002136
:1044A000DFF8C0C20A4601EB810300200CEB430396
:1044B0001A54401CC0B20A28FAD3481CC1B264295D
:1044C000F1D3A9484FF0010CA24C0270A74800217B
:1044D0000270A7480270A74880F800C001EB810372
:1044E000002004EB43031A54401CC0B20A28FAD33C
:1044F000481CC1B26429F1D39748027097480270F2
:10450000974802709C4880F800C010BC70472DE9A5
:10451000F05F9A489A4E0025B0F8120F316800EB10
:104520008000A84601EB400B02F03EF8954F306842
:104530001430386094480024047038683168884228
:1045400080F0E780DFF84492DFF844A2D9F8000059
:104550009AF8001000F0550201F080031A437DD054
:10456000B8F1000F17D0DFF82C82D8F8081011F03E
:10457000800F04BF20F01000C9F8000005D0864865
:104580000078002818BFFEF707FCD8F8080010F0E4
:10459000020F7ED177E010F0100F1CBF7F4804702F
:1045A0000021704B01EB8102002003EB4202145406
:1045B000401CC0B20A28FAD3481CC1B26429F1D306
:1045C00069480122634B0470684800210470684800
:1045D00004706848027001EB810C002003EB4C0C66
:1045E0000CF80040401CC0B20A28F9D3481CC1B2E4
:1045F0006429F0D3DFF86091DFF860C1DFF86081F3
:1046000089F800405C488CF8004088F80040DFF8EA
:1046100034A10270002101EB810200200AEB42026A
:104620001454401CC0B20A28FAD3481CC1B2322923
:10463000F1D3454800210470444804704448047094
:1046400001EB8102002003EB42021454401CC0B273
:104650000A28FAD3481CC1B2642900E040E0EFD335
:1046600089F800404E488CF8004088F800400470FB
:10467000FDF76EF930684FF0010800F11E0149485E
:10468000016043E005E0D9F8000020F00800C9F817
:1046900000002D480078322805D2D9F8000020F01B
:1046A0000400C9F800002C480078642805D2D9F825
:1046B000000020F04000C9F8000039480078642864
:1046C00005D29AF8000020F080008AF80000D9F89E
:1046D00000004FF0000820F02100C9F8000015E0AC
:1046E0002F482E4A04700120107021F080002E49BE
:1046F0008AF80000FF2008701BF08CFA1AF0AFFD5A
:104700002A480078082818BFBDE8F09F30681430A8
:10471000386001F049FF8DB9306883450ED22448D6
:104720004FF0010980F80090FF20FCF736F821488F
:10473000012580F80090204880F8009009F03EFEA6
:10474000FBE60000D44100104F1200105012001080
:1047500051120010B04700105712001059120010EB
:1047600058120010C84300105212001053120010CB
:1047700054120010551200105A12001000F00720B9
:10478000AC130010CC140010CE12001060130010F7
:10479000A613001000400440FB1300105612001036
:1047A000641300105C120010A4130010C014001059
:1047B000151300107B1300107C1300102DE9F05F1F
:1047C000FD48FF49FF4F0668FC480268964205D144
:1047D0003A680B689A4208BFBDE8F09F0024DFF8F2
:1047E000E893DFF8E8A3DFF8E88326FA04F000F0A6
:1047F0000101F2480068E04000F0010081420AD166
:104800003868E04000F00101ED480068E04000F049
:104810000100814275D0152CC4EBC40040D200EBDE
:10482000080595F8320100286BD095F83801012869
:1048300008BF002065D1291891F8321109F800103D
:10484000401CC0B20528F6D3386801217040E04012
:1048500000F0010B89F805B0084607F071FE95F8E5
:1048600032018F280ED009DC02280BD0842868D0B2
:1048700095F833115A46FEF7B3FB42E0902818BF73
:104880009128F5D198F80C00012888BFFFF7AEFCFD
:1048900095F8331195F832015A46FEF7A1FB30E046
:1048A00000EB080101F5804595F8620248B395F8E0
:1048B0006802012808BF002023D10A1802F58042AF
:1048C00092F8622209F80020401CC0B20528F4D3F7
:1048D000386801217040E04000F0010B89F805B014
:1048E000084607F02DFE95F862028F281BD016DCD3
:1048F000022818D0842824D095F863125A46FEF76F
:104900006FFB601CC4B2182CFFF46FAFAA4801689B
:10491000AA480160AA4839680160BDE8F09F902864
:1049200018BF9128E8D198F80C00012888BFFFF73C
:104930005DFC95F8631295F862025A46FEF750FB4B
:10494000DFE79AF80000FEF7CEFBDAE78F280BD0FE
:1049500006DC022818BF052806D04FF0000070477B
:10496000902818BF9128F8D14FF0010070472DE929
:10497000F007974F0126974D079C8F285CD057DC96
:10498000022818BF052857D0492800F0E2804428A3
:1049900012BF4C28BDE8F00770474FF0000CCCEB7D
:1049A000CC08B84498F8CC91814512D198F8CD91B3
:1049B000894512BF002998F8CF91914509D198F8FF
:1049C000D08118EA030F40F05481B8F1000F00F0D5
:1049D00050810CF1010C0CF0FF0CBCF1040FDED384
:1049E0004FF0000CCCEBCC08B84408F5804898F8A0
:1049F0001893814512D198F81993894512BF00295F
:104A000098F81B93914509D198F81C8318EA030F75
:104A100040F03D81B8F1000F00F039810CF1010C3C
:104A20000CF0FF0CBCF1020FDCD3BDE8F0077047BF
:104A3000902818BF9128A7D102280CBF94468C4615
:104A4000BCF1FF0F08BF00215AD04FF00F084FF004
:104A5000000C28EA0308CCEBCC033B4493F8CC9140
:104A6000814504BF93F8CD91894514D193F8CF9136
:104A7000914504BF93F8D03113EA080F0BD195F894
:104A8000009014F0010F06FA0CF314BF43EA090377
:104A900029EA03032B700CF1010303F0FF0CBCF1B6
:104AA000040FD8D30023C3EBC30CBC440CF5804CDB
:104AB0009CF81893814504BF9CF81993894517D138
:104AC0009CF81B93914504BF9CF81CC31CEA080F7B
:104AD0000ED103F1040C95F8009014F0010F06FAC2
:104AE0000CFC14BF4CEA090C29EA0C0C85F800C038
:104AF00003F10103DBB2022BD5D3BDE8F007704709
:104B0000C1EBC1023A4492F8CC21824205D12B7804
:104B100006FA01F223EA02022A70491CC9B20429EA
:104B2000EED30021C1EBC1023A4402F5804292F873
:104B30001823824206D10A1D2B7806FA02F223EAD4
:104B400002022A70491CC9B20229EBD3BDE8F00762
:104B5000704711F00F0F1CBF4FF0000C01F00F0950
:104B60003FF41BAFCCEBCC01394491F8CC818045AC
:104B70001ED191F8CD8118EA090F02D1B8F1000FCA
:104B800043D191F8CF8190451CBFFF2AB8F1000FA7
:104B90003BD191F8D011194200D1A9BB14F0010FFB
:104BA00033D095F8008006FA0CF141EA080129702B
:104BB0000CF1010110E000007C12001080120010C6
:104BC0006C140010841200107014001052130010A6
:104BD00000C007207912001001F0FF0CBCF1040F97
:104BE000C0D30021C1EBC10CBC440CF5804C9CF837
:104BF000188380452DD19CF8198318EA090F0BD131
:104C0000B8F1000F2CD107E0FFE795F8008006FA15
:104C10000CF128EA0101CAE79CF81B8390451CBFF0
:104C2000FF2AB8F1000F1BD19CF81CC31CEA030F2C
:104C300002D1BCF1000F13D114F0010F10D001F11B
:104C4000040C95F8008006FA0CFC4CEA080C85F878
:104C500000C0491CC9B20229C4D3BDE8F00770479F
:104C600001F1040C95F8008006FA0CFC28EA0C0C03
:104C7000EDE795F8009014F0010F06FA0CF814BF58
:104C800048EA090829EA080885F80080A1E60CF13D
:104C9000040895F8009014F0010F06FA08F814BF04
:104CA00048EA090829EA080885F80080B6E62DE9EF
:104CB000F04FFC49FF2891F80D6208D016F0040F60
:104CC00005D1F9490978002918BFBDE8F08FF748E8
:104CD0000078052804BFF64890F800C005D00628E3
:104CE0000CBFF448F44890F800C0DFF8D0A30022CD
:104CF0009AF805009AF804B0B0EB0B095CBF0CF110
:104D00000108EF4F44D40AEB0200837E580903F0F8
:104D10001F0157F82000C84010F0010F34D116F0E1
:104D2000200F3AD10021634513D908F0FF008342D8
:104D300033D9440900F01F0557F82440EC4014F023
:104D4000010F18BF0121401CC0B28342F1D8D9B96C
:104D500023E05D1C6046AC451FD9441E4FEAE47E4B
:104D600004EBDE634FEA631E23F01F0357F82EE0C7
:104D7000E31A2EFA03F313F0010F18BF0121401EAE
:104D8000C0B28542E9D341B1501CC2B24A45BADD36
:104D9000CC481BF80000BDE8F08F0AEB0200807ED3
:104DA000BDE8F08FC1480078182816D0C648BD4924
:104DB0000278C648402A007818BF032802D191F82B
:104DC000F22142B9062806D0052806D191F80D0235
:104DD00010F0010F01D00120704700207047BC483F
:104DE0000078C8B1BB480078B0B9BB480078A8B912
:104DF000BA480168BA48006881420FD2B949BA4A34
:104E000009781278114307D1B8490968884205D951
:104E1000A448B0F8740208B1012070470020704720
:104E20002DE9F84F9F4A4FF461634FF4616892F89F
:104E30006B124FF4616901FB03FCA2F580514FF442
:104E4000616B91F82C3E4FF4616EC3EB03130CEBD6
:104E5000830792F86C324FF4616C03FB0CFC91F801
:104E60002D3E0020C3EB03130CEB8303009391F85A
:104E7000303E4FF4616C03FB0CFC91F8313EC3EB08
:104E800003130CEB830691F8323E4FF4616C03FB85
:104E90000CFC91F8333EC3EB03130CEB830491F845
:104EA000383E4FF4616C03FB0CFC91F8393EC3EBC8
:104EB00003130CEB830591F83A3E4FF4616C03FB4E
:104EC0000CFC91F83B3EC3EB03130CEB830C92F804
:104ED0006D3292F86E2203FB08F891F82E3EC3EB78
:104EE000031308EB83034FF4616802FB08F891F8A1
:104EF0002F2EC2EB021208EB820891F8342E02FB2F
:104F000009F991F8352EC2EB021209EB820A91F8E9
:104F1000362E4FF4616902FB09F991F8372EC2EB86
:104F2000021209EB820291F83C9E09FB0BFB91F8FF
:104F30003D9EC9EB09190BEB890991F83EBE91F82A
:104F40003F1E0BFB0EFBC1EB01110BEB810B684904
:104F5000897801FB0EFE66494978C1EB01110EEB21
:104F60008101B94224BF009F8F4207D2B14228BFBE
:104F70008C4203D2A94228BF8C4500D3012099421C
:104F800028BF884508D2514528BF8A4204D24945E6
:104F90002CBF8B45BDE8F88F40F00200BDE8F88FCC
:104FA0002DE9F04F41484949FF2502780878DFF89C
:104FB000308183B02E46042A08BF002802D14D4A12
:104FC00012784AB13D4AD8F80030D28A02EB820208
:104FD00003EB4202484B1A60484ADFF82CC14FF0FD
:104FE00001091378464A127843EA0203454A1278C7
:104FF0001A4318BF8CF80090444A454F294C127848
:105000004FF0000A1AB1434A82F800A01AE0424A5F
:1050100012786AB994F80D2212F0080F0CD0284BC0
:10502000D3F800B0BBF1000F04BF5B68002B03D0C6
:10503000384A82F8009008E012F0100FE3D1354AA8
:10504000127812B94FF0FF02FA712F4A13784FF01D
:105050000202002B18BF062001D0087067E02D4B1C
:105060001B78002B18BF0520F7D1194B1B782BB1EB
:10507000184B1B78002B08BF0420EED0274B1B7861
:105080001BB1032898BF0320E7D9254B1B781BB120
:10509000022898BF0A704AD9224B1B780BB101280D
:1050A00042E044E00000082094130010C0140010F7
:1050B000C2140010411300103F13001000C007205D
:1050C000FC1200101AC0072008130010171300105C
:1050D000D6120010D9120010D8120010E0120010E1
:1050E000AC130010D7120010E6120010DC120010F2
:1050F00016150010FF130010D0140010F31200104A
:10510000F1120010F2120010EF120010FA1200104B
:1051100010100010F9120010F7120010C312001046
:10512000C2120010C112001098BF81F80090FE4812
:10513000FE4B00781B78184318BFF126087840B161
:1051400026F01F06022822BF26F02006032826F09C
:105150004006F74B1B78002B18BF0026F54BDFF8F5
:10516000D8C31B789CF800C003F00F0353EA0C036C
:1051700005D1F24B1B7813B1F14B1B7803B100251D
:10518000F04BDFF8C4C3DFF8C8B383F800A00823EE
:105190008CF80030ED4B1B781BB1EA4B1A700A22D9
:1051A00009E0EC4A9BF8003012781A4305D0E54A32
:1051B00082F8009009228CF80020002840F0F68048
:1051C000E548E649007809780843E5490978084345
:1051D000E44909780843E4490978084302D1E348DF
:1051E000007800B10025E248007848B1012125F09F
:1051F0000E050846FBF700FC002818BF25F0010546
:10520000D548007840B1FF210120FBF7F5FB0028CD
:105210001CBFFF20FBF7C1FA94F8F81194F8F901CC
:10522000D44B884204D99A788A4228BF904206D843
:10523000814207D99A78914201D9904202D98BF8DC
:10524000009001E08BF800A094F86B02DFF828B31F
:1052500025F0800500285BD1C84890F82C1E002955
:1052600004BF90F8301E002952D190F8311E002959
:1052700004BF90F8381E00294AD190F8391E002941
:1052800004BF94F86C12002942D190F82D1E002919
:1052900004BF90F8321E00293AD190F8331E00293D
:1052A00004BF90F83A1E002932D190F83B1E002925
:1052B00004BF94F86D1200292AD190F82E1E0029FF
:1052C00004BF90F8341E002922D190F8351E002921
:1052D00004BF90F83C1E00291AD190F83D1E002909
:1052E00004BF94F86E12002912D190F82F1E0029E5
:1052F00004BF90F8361E00290AD190F8371E002905
:1053000001BF90F83E1E002990F83F0E002813D0F0
:10531000FFF786FD00F001018BF8001000F002019C
:105320009748017097499BF800000978084318BF17
:1053300025F004050ED105E091488BF800A080F817
:1053400000A0EFE78E48904900780978084318BF1D
:1053500025F002058D480078002808BF87F80CA0CA
:1053600024D0387B002508BBFF20FBF716FA884ABB
:1053700088481179007881429CBF5179884213D8BE
:10538000854911F8303043F0800301F8303001EBEB
:10539000C0011044814A00F540504B7890F8870DC9
:1053A000127810401843487087F80C907C48DFF85A
:1053B000F4B1007801286ED17B48397900788842B1
:1053C00021D0002894F8E50117D010F0010F1CBF80
:1053D0000120FBF7E2F994F8E20100281CBF0E203F
:1053E000FBF7DBF994F80002D8F8001000EB80001E
:1053F00001EB40016D48016005E010F0020F1CBF99
:105400000120FBF7CAF96848017869480078084329
:1054100008D168480288B2F5A04F1CBF4088B0F59B
:10542000A04F0DD194F8030200EB8002D8F80000E1
:1054300000EB4200DBF80020904288BFCBF8000070
:105440005A4BD8F800001A68824210D3594AB2F871
:1054500000C0BCF5A04F1CBF5288B2F5A04F06D1CA
:1054600094F8002202EB820200EB42021A6094F8E8
:105470000A22002A08BF25F0010594F8062202B18D
:1054800031B194F8001200291CBF1968814203D27F
:1054900025F0800503E02BE02A4A0321117094F8DF
:1054A000E211002918BF25F00E0543490A78434947
:1054B00009788A421CD1424A1278102A18D1414AEE
:1054C000525C414909780A4040490B7807219943C9
:1054D0000A420DD094F8031225F0010501EB810179
:1054E00000EB4100DBF80010884288BFCBF80000D9
:1054F0002B480078022816D13548797900788842FF
:105500007BD0002894F8E60171D010F0010F1CBF89
:105510000120FBF742F994F8E30100281CBF0E209C
:10552000FBF73BF958E0DFE054130010C9120010FC
:105530005313001056130010491300105813001095
:1055400044140010391300103A130010A113001076
:105550009F130010A0130010C41200109D13001020
:105560009E130010A21300103A120010991300109D
:1055700081130010161500102B13001000F00720E7
:105580002C1300102D1300102E130010EC1200101D
:1055900000C00720ED12001068150010EE12001078
:1055A0001713001018130010C11200101C13001064
:1055B0003D130010C41400100B1300103F13001013
:1055C0000A130010E85500100C130010CA14001044
:1055D000C212001011E00AE094F80102D8F800109D
:1055E00000EB800001EB4001FE48016005E010F097
:1055F000020F1CBF0120FBF7D0F8FB480178FB48E5
:105600000078084308D1FA480288B2F5A04F1CBFC1
:105610004088B0F5A04F0DD194F8040200EB800251
:10562000D8F8000000EB4200DBF80020904288BF71
:10563000CBF80000EB4BD8F800001A68824210D378
:10564000EB4AB2F800C0BCF5A04F1CBF5288B2F5BF
:10565000A04F06D194F8012202EB820200EB420235
:105660001A6094F80B2212F0010F08BF25F0010513
:1056700094F8072202B131B194F8011200291CBF3D
:105680001968814202D225F0800502E0D94A04213E
:10569000117094F8E311002918BF25F00E05D649C2
:1056A0000A78D64909788A421ED1D54A1278202A2A
:1056B0001AD1D44A114491F83720D34909780A40C5
:1056C000D2490B78072199430A420DD094F804126D
:1056D00025F0010501EB810100EB4100DBF8001032
:1056E000884288BFCBF80000C948007803286ED1F3
:1056F000C848B9790078884221D0002894F8E70199
:1057000017D010F0010F1CBF0120FBF746F894F8EA
:10571000E40100281CBF0E20FBF73FF894F80202BA
:10572000D8F8001000EB800001EB4001AD480160AB
:1057300005E010F0020F1CBF0120FBF72EF8B54862
:105740000178AA480078084308D1A9480288B2F530
:10575000A04F1CBF4088B0F5A04F0DD194F80502B2
:1057600000EB8002D8F8000000EB4200DBF80020DC
:10577000904288BFCBF800009A4BD8F800001A6816
:10578000824210D39A4AB2F800C0BCF5A04F1CBFA9
:105790005288B2F5A04F06D194F8022202EB8202A1
:1057A00000EB42021A6094F80C22002A08BF25F090
:1057B000010594F8082202B131B194F802120029CF
:1057C0001CBF1968814203D225F0800503E02DE05B
:1057D000884A0521117094F8E411002918BF25F0BA
:1057E0000E0585490A78854909788A421ED1844A7E
:1057F0001278402A1AD1834A114491F86E208249C6
:1058000009780A4081490B78072199430A420DD053
:1058100094F8051225F0010501EB810100EB410030
:10582000DBF80010884288BFCBF800007848007889
:10583000042866D178480025007800281CBFD8F8D5
:105840000000CBF80000DFF8D4E19EF80000A0BB18
:105850007348D8F800100068884249D27148724AEB
:1058600000781278104306D17048006881423FD911
:10587000B4F8740208B361486E4A03786C48007843
:10588000834209D1614B93F800C0072323EA0C033C
:1058900092F800C0634511D0674B5B7983420DD30A
:1058A00066490978062930D06549802301F83030EF
:1058B00001EBC0001278427027E019E05F480078E1
:1058C000042806D05F48006888421ED294F8760209
:1058D000D8B15D488EF80090002380F800900B202E
:1058E000CDE900901A469F210E20FCF72EFD08E01E
:1058F000FF210120FBF780F800281CBFFF20FAF7EA
:105900004CFF43480078052809D0504887F808A084
:1059100080F800A03E480078062861D082E1387AFD
:1059200020B9FF20FAF739FF87F80890314907209E
:1059300000250870F879FFF7BAF94549087045491C
:1059400009780029E6D0D8F80010CBF80010F979D2
:1059500088420DD1394A1278042A37D1274A127861
:10596000824233D0364A12F8302012F0800F2DD107
:10597000FF2906D0324A02F831A002EBC10181F8BA
:1059800001A02F4A12F8301041F0800102F83010C7
:105990001849097801EBC103C3EB811326490B4475
:1059A0000344014403F5405301F5405193F8443F4B
:1059B00091F8871D0B4002EBC0014A781A434A70E8
:1059C0002549264A0978491C1170F8710B49097854
:1059D00088429FD11D48017800299BD11A493FE098
:1059E00043E000001C130010C21200103D13001011
:1059F000C4140010391300100B1300103F130010D3
:105A00000A130010E85500100C130010CA140010FF
:105A100017130010C3120010D6120010D812001075
:105A2000E0120010D7120010E6120010DC12001075
:105A3000E4120010E512001000C00720C01400108E
:105A400068150010E8120010081400100914001066
:105A5000F8120010F9120010F412001029130010AF
:105A600081F8009080F8009054E7FE48007820B15B
:105A7000D8F800009630CBF80000FB480178FB48CE
:105A80000078084320D0FA48007808B1787A08B145
:105A9000F87A18B187F80B90002523E0F5488025A7
:105AA0000178F5480078814204BF94F8F60110F0BF
:105AB000010FF24814BF80F8009080F800A087F82A
:105AC000019087F802900DE0EC484FF0000580F857
:105AD00000A087F80BA094F8F60110F0080F18BF8B
